{
  "contractName": "Presale",
  "abi": [
    {
      "constant": true,
      "inputs": [
        {
          "name": "",
          "type": "uint256"
        }
      ],
      "name": "purchasers",
      "outputs": [
        {
          "name": "",
          "type": "address"
        }
      ],
      "payable": false,
      "stateMutability": "view",
      "type": "function"
    },
    {
      "constant": true,
      "inputs": [],
      "name": "ended",
      "outputs": [
        {
          "name": "",
          "type": "bool"
        }
      ],
      "payable": false,
      "stateMutability": "view",
      "type": "function"
    },
    {
      "constant": true,
      "inputs": [
        {
          "name": "",
          "type": "address"
        }
      ],
      "name": "balances",
      "outputs": [
        {
          "name": "",
          "type": "uint256"
        }
      ],
      "payable": false,
      "stateMutability": "view",
      "type": "function"
    },
    {
      "constant": true,
      "inputs": [],
      "name": "owner",
      "outputs": [
        {
          "name": "",
          "type": "address"
        }
      ],
      "payable": false,
      "stateMutability": "view",
      "type": "function"
    },
    {
      "constant": true,
      "inputs": [],
      "name": "crowdsale",
      "outputs": [
        {
          "name": "",
          "type": "address"
        }
      ],
      "payable": false,
      "stateMutability": "view",
      "type": "function"
    },
    {
      "constant": true,
      "inputs": [],
      "name": "minimumPurchase",
      "outputs": [
        {
          "name": "",
          "type": "uint256"
        }
      ],
      "payable": false,
      "stateMutability": "view",
      "type": "function"
    },
    {
      "constant": true,
      "inputs": [],
      "name": "presaleMaximum",
      "outputs": [
        {
          "name": "",
          "type": "uint256"
        }
      ],
      "payable": false,
      "stateMutability": "view",
      "type": "function"
    },
    {
      "constant": true,
      "inputs": [
        {
          "name": "",
          "type": "address"
        }
      ],
      "name": "pushed",
      "outputs": [
        {
          "name": "",
          "type": "bool"
        }
      ],
      "payable": false,
      "stateMutability": "view",
      "type": "function"
    },
    {
      "constant": true,
      "inputs": [],
      "name": "totalPurchased",
      "outputs": [
        {
          "name": "",
          "type": "uint256"
        }
      ],
      "payable": false,
      "stateMutability": "view",
      "type": "function"
    },
    {
      "constant": false,
      "inputs": [
        {
          "name": "newOwner",
          "type": "address"
        }
      ],
      "name": "transferOwnership",
      "outputs": [],
      "payable": false,
      "stateMutability": "nonpayable",
      "type": "function"
    },
    {
      "payable": true,
      "stateMutability": "payable",
      "type": "fallback"
    },
    {
      "anonymous": false,
      "inputs": [
        {
          "indexed": false,
          "name": "_purchaser",
          "type": "address"
        },
        {
          "indexed": false,
          "name": "amount",
          "type": "uint256"
        },
        {
          "indexed": false,
          "name": "existing",
          "type": "bool"
        },
        {
          "indexed": false,
          "name": "totalPurchasedAmount",
          "type": "uint256"
        }
      ],
      "name": "Purchased",
      "type": "event"
    },
    {
      "anonymous": false,
      "inputs": [
        {
          "indexed": false,
          "name": "_purchaser",
          "type": "address"
        },
        {
          "indexed": false,
          "name": "amount",
          "type": "uint256"
        }
      ],
      "name": "Pushed",
      "type": "event"
    },
    {
      "anonymous": false,
      "inputs": [
        {
          "indexed": false,
          "name": "_purchaser",
          "type": "address"
        },
        {
          "indexed": false,
          "name": "amount",
          "type": "uint256"
        }
      ],
      "name": "Refund",
      "type": "event"
    },
    {
      "anonymous": false,
      "inputs": [
        {
          "indexed": true,
          "name": "previousOwner",
          "type": "address"
        },
        {
          "indexed": true,
          "name": "newOwner",
          "type": "address"
        }
      ],
      "name": "OwnershipTransferred",
      "type": "event"
    },
    {
      "constant": false,
      "inputs": [],
      "name": "PresaleFunds",
      "outputs": [],
      "payable": false,
      "stateMutability": "nonpayable",
      "type": "function"
    },
    {
      "constant": false,
      "inputs": [],
      "name": "Purchase",
      "outputs": [],
      "payable": true,
      "stateMutability": "payable",
      "type": "function"
    },
    {
      "constant": false,
      "inputs": [
        {
          "name": "_purchaser",
          "type": "address"
        }
      ],
      "name": "PushPurchaserToCrowdsale",
      "outputs": [],
      "payable": false,
      "stateMutability": "nonpayable",
      "type": "function"
    },
    {
      "constant": false,
      "inputs": [],
      "name": "PushAllPurchasersToCrowdsale",
      "outputs": [],
      "payable": false,
      "stateMutability": "nonpayable",
      "type": "function"
    },
    {
      "constant": false,
      "inputs": [
        {
          "name": "_crowdsale",
          "type": "address"
        }
      ],
      "name": "SetCrowdsale",
      "outputs": [],
      "payable": false,
      "stateMutability": "nonpayable",
      "type": "function"
    },
    {
      "constant": false,
      "inputs": [],
      "name": "EndPresale",
      "outputs": [],
      "payable": false,
      "stateMutability": "nonpayable",
      "type": "function"
    },
    {
      "constant": false,
      "inputs": [],
      "name": "OpenPresale",
      "outputs": [],
      "payable": false,
      "stateMutability": "nonpayable",
      "type": "function"
    },
    {
      "constant": false,
      "inputs": [
        {
          "name": "_purchaser",
          "type": "address"
        }
      ],
      "name": "RefundPurchaser",
      "outputs": [],
      "payable": false,
      "stateMutability": "nonpayable",
      "type": "function"
    },
    {
      "constant": false,
      "inputs": [],
      "name": "withdraw",
      "outputs": [],
      "payable": false,
      "stateMutability": "nonpayable",
      "type": "function"
    },
    {
      "constant": false,
      "inputs": [
        {
          "name": "newCap",
          "type": "uint256"
        }
      ],
      "name": "updateCap",
      "outputs": [],
      "payable": false,
      "stateMutability": "nonpayable",
      "type": "function"
    }
  ],
  "bytecode": "0x60606040526907976eb1628f39e800006004556714d1120d7b160000600555336000806101000a81548173ffffffffffffffffffffffffffffffffffffffff021916908373ffffffffffffffffffffffffffffffffffffffff16021790555061135f8061006d6000396000f300606060405260043610610112576000357c0100000000000000000000000000000000000000000000000000000000900463ffffffff16806312923b651461011c57806312fa6feb1461017f57806327e235e3146101ac5780632adfcd05146101f95780633ccfd60b1461020e57806349c15bd9146102235780638da5cb5b1461022d5780639c1e03a0146102825780639ff957c7146102d7578063a7d6889614610310578063aa2de6c314610333578063b527983c1461035c578063c5f71da514610371578063d1ac79c61461039a578063d5482cd2146103d3578063dc6e290f146103e8578063e2f8a3b114610421578063e476d2a614610472578063e632c2f314610487578063f2fde38b146104b0575b61011a6104e9565b005b341561012757600080fd5b61013d6004808035906020019091905050610730565b604051808273ffffffffffffffffffffffffffffffffffffffff1673ffffffffffffffffffffffffffffffffffffffff16815260200191505060405180910390f35b341561018a57600080fd5b61019261076f565b604051808215151515815260200191505060405180910390f35b34156101b757600080fd5b6101e3600480803573ffffffffffffffffffffffffffffffffffffffff16906020019091905050610782565b6040518082815260200191505060405180910390f35b341561020457600080fd5b61020c61079a565b005b341561021957600080fd5b610221610812565b005b61022b6104e9565b005b341561023857600080fd5b6102406108e7565b604051808273ffffffffffffffffffffffffffffffffffffffff1673ffffffffffffffffffffffffffffffffffffffff16815260200191505060405180910390f35b341561028d57600080fd5b61029561090c565b604051808273ffffffffffffffffffffffffffffffffffffffff1673ffffffffffffffffffffffffffffffffffffffff16815260200191505060405180910390f35b34156102e257600080fd5b61030e600480803573ffffffffffffffffffffffffffffffffffffffff16906020019091905050610932565b005b341561031b57600080fd5b61033160048080359060200190919050506109d1565b005b341561033e57600080fd5b610346610a40565b6040518082815260200191505060405180910390f35b341561036757600080fd5b61036f610a46565b005b341561037c57600080fd5b610384610b72565b6040518082815260200191505060405180910390f35b34156103a557600080fd5b6103d1600480803573ffffffffffffffffffffffffffffffffffffffff16906020019091905050610b78565b005b34156103de57600080fd5b6103e6610e6b565b005b34156103f357600080fd5b61041f600480803573ffffffffffffffffffffffffffffffffffffffff16906020019091905050610ee3565b005b341561042c57600080fd5b610458600480803573ffffffffffffffffffffffffffffffffffffffff16906020019091905050611124565b604051808215151515815260200191505060405180910390f35b341561047d57600080fd5b610485611144565b005b341561049257600080fd5b61049a611169565b6040518082815260200191505060405180910390f35b34156104bb57600080fd5b6104e7600480803573ffffffffffffffffffffffffffffffffffffffff1690602001909190505061116f565b005b600080600660149054906101000a900460ff1615151561050857600080fd5b600554341015151561051957600080fd5b3391506000600260008473ffffffffffffffffffffffffffffffffffffffff1673ffffffffffffffffffffffffffffffffffffffff168152602001908152602001600020541190506105b334600260008573ffffffffffffffffffffffffffffffffffffffff1673ffffffffffffffffffffffffffffffffffffffff168152602001908152602001600020546112c490919063ffffffff16565b600260008473ffffffffffffffffffffffffffffffffffffffff1673ffffffffffffffffffffffffffffffffffffffff1681526020019081526020016000208190555061060b346003546112c490919063ffffffff16565b600381905550600015158115151415610682576001805480600101828161063291906112e2565b9160005260206000209001600084909190916101000a81548173ffffffffffffffffffffffffffffffffffffffff021916908373ffffffffffffffffffffffffffffffffffffffff160217905550505b6004546003541015156106ab576001600660146101000a81548160ff0219169083151502179055505b7f1a6e500850d738b827512bacdfcd03822e0a6a7b27f693eb70bdcb7b288fb2a6823483600354604051808573ffffffffffffffffffffffffffffffffffffffff1673ffffffffffffffffffffffffffffffffffffffff1681526020018481526020018315151515815260200182815260200194505050505060405180910390a15050565b60018181548110151561073f57fe5b90600052602060002090016000915054906101000a900473ffffffffffffffffffffffffffffffffffffffff1681565b600660149054906101000a900460ff1681565b60026020528060005260406000206000915090505481565b6000809054906101000a900473ffffffffffffffffffffffffffffffffffffffff1673ffffffffffffffffffffffffffffffffffffffff163373ffffffffffffffffffffffffffffffffffffffff161415156107f557600080fd5b6001600660146101000a81548160ff021916908315150217905550565b6000809054906101000a900473ffffffffffffffffffffffffffffffffffffffff1673ffffffffffffffffffffffffffffffffffffffff163373ffffffffffffffffffffffffffffffffffffffff1614151561086d57600080fd5b6000809054906101000a900473ffffffffffffffffffffffffffffffffffffffff1673ffffffffffffffffffffffffffffffffffffffff166108fc3073ffffffffffffffffffffffffffffffffffffffff16319081150290604051600060405180830381858888f1935050505015156108e557600080fd5b565b6000809054906101000a900473ffffffffffffffffffffffffffffffffffffffff1681565b600660009054906101000a900473ffffffffffffffffffffffffffffffffffffffff1681565b6000809054906101000a900473ffffffffffffffffffffffffffffffffffffffff1673ffffffffffffffffffffffffffffffffffffffff163373ffffffffffffffffffffffffffffffffffffffff1614151561098d57600080fd5b80600660006101000a81548173ffffffffffffffffffffffffffffffffffffffff021916908373ffffffffffffffffffffffffffffffffffffffff16021790555050565b6000809054906101000a900473ffffffffffffffffffffffffffffffffffffffff1673ffffffffffffffffffffffffffffffffffffffff163373ffffffffffffffffffffffffffffffffffffffff16141515610a2c57600080fd5b670de0b6b3a7640000810260048190555050565b60055481565b60008060009054906101000a900473ffffffffffffffffffffffffffffffffffffffff1673ffffffffffffffffffffffffffffffffffffffff163373ffffffffffffffffffffffffffffffffffffffff16141515610aa357600080fd5b6000600660009054906101000a900473ffffffffffffffffffffffffffffffffffffffff1673ffffffffffffffffffffffffffffffffffffffff1614151515610aeb57600080fd5b60011515600660149054906101000a900460ff161515141515610b0d57600080fd5b600090505b600180549050811015610b6f57610b62600182815481101515610b3157fe5b906000526020600020900160009054906101000a900473ffffffffffffffffffffffffffffffffffffffff16610b78565b8080600101915050610b12565b50565b60045481565b600080600660009054906101000a900473ffffffffffffffffffffffffffffffffffffffff1673ffffffffffffffffffffffffffffffffffffffff1614151515610bc157600080fd5b60011515600660149054906101000a900460ff161515141515610be357600080fd5b60011515600760008473ffffffffffffffffffffffffffffffffffffffff1673ffffffffffffffffffffffffffffffffffffffff16815260200190815260200160002060009054906101000a900460ff16151514151515610c4357600080fd5b6000600260008473ffffffffffffffffffffffffffffffffffffffff1673ffffffffffffffffffffffffffffffffffffffff16815260200190815260200160002054111515610c9157600080fd5b600260008373ffffffffffffffffffffffffffffffffffffffff1673ffffffffffffffffffffffffffffffffffffffff168152602001908152602001600020549050600660009054906101000a900473ffffffffffffffffffffffffffffffffffffffff1673ffffffffffffffffffffffffffffffffffffffff1663ec8ac4d882846040518363ffffffff167c0100000000000000000000000000000000000000000000000000000000028152600401808273ffffffffffffffffffffffffffffffffffffffff1673ffffffffffffffffffffffffffffffffffffffff1681526020019150506000604051808303818588803b1515610d8f57600080fd5b6125ee5a03f11515610da057600080fd5b505050506001600760008473ffffffffffffffffffffffffffffffffffffffff1673ffffffffffffffffffffffffffffffffffffffff16815260200190815260200160002060006101000a81548160ff0219169083151502179055507f14ca0b41d19c82140067d601d51802e1c2833562781fcf742c61311b6d06df448282604051808373ffffffffffffffffffffffffffffffffffffffff1673ffffffffffffffffffffffffffffffffffffffff1681526020018281526020019250505060405180910390a15050565b6000809054906101000a900473ffffffffffffffffffffffffffffffffffffffff1673ffffffffffffffffffffffffffffffffffffffff163373ffffffffffffffffffffffffffffffffffffffff16141515610ec657600080fd5b6000600660146101000a81548160ff021916908315150217905550565b60008060009054906101000a900473ffffffffffffffffffffffffffffffffffffffff1673ffffffffffffffffffffffffffffffffffffffff163373ffffffffffffffffffffffffffffffffffffffff16141515610f4057600080fd5b6000600260008473ffffffffffffffffffffffffffffffffffffffff1673ffffffffffffffffffffffffffffffffffffffff16815260200190815260200160002054111515610f8e57600080fd5b60011515600760008473ffffffffffffffffffffffffffffffffffffffff1673ffffffffffffffffffffffffffffffffffffffff16815260200190815260200160002060009054906101000a900460ff16151514151515610fee57600080fd5b600260008373ffffffffffffffffffffffffffffffffffffffff1673ffffffffffffffffffffffffffffffffffffffff1681526020019081526020016000205490508173ffffffffffffffffffffffffffffffffffffffff166108fc829081150290604051600060405180830381858888f19350505050151561107057600080fd5b6000600260008473ffffffffffffffffffffffffffffffffffffffff1673ffffffffffffffffffffffffffffffffffffffff168152602001908152602001600020819055507fbb28353e4598c3b9199101a66e0989549b659a59a54d2c27fbb183f1932c8e6d8282604051808373ffffffffffffffffffffffffffffffffffffffff1673ffffffffffffffffffffffffffffffffffffffff1681526020018281526020019250505060405180910390a15050565b60076020528060005260406000206000915054906101000a900460ff1681565b6000600660146101000a81548160ff0219169083151502179055506000600381905550565b60035481565b6000809054906101000a900473ffffffffffffffffffffffffffffffffffffffff1673ffffffffffffffffffffffffffffffffffffffff163373ffffffffffffffffffffffffffffffffffffffff161415156111ca57600080fd5b600073ffffffffffffffffffffffffffffffffffffffff168173ffffffffffffffffffffffffffffffffffffffff161415151561120657600080fd5b8073ffffffffffffffffffffffffffffffffffffffff166000809054906101000a900473ffffffffffffffffffffffffffffffffffffffff1673ffffffffffffffffffffffffffffffffffffffff167f8be0079c531659141344cd1fd0a4f28419497f9722a3daafe3b4186f6b6457e060405160405180910390a3806000806101000a81548173ffffffffffffffffffffffffffffffffffffffff021916908373ffffffffffffffffffffffffffffffffffffffff16021790555050565b60008082840190508381101515156112d857fe5b8091505092915050565b81548183558181151161130957818360005260206000209182019101611308919061130e565b5b505050565b61133091905b8082111561132c576000816000905550600101611314565b5090565b905600a165627a7a72305820c0b905d7e364590ecbffb7ff4989bee11993c6d362b21541ac9998f11843cb4c0029",
  "source": "pragma solidity ^0.4.19;\n\nimport 'zeppelin-solidity/contracts/ownership/Ownable.sol';\nimport 'zeppelin-solidity/contracts/math/SafeMath.sol';\nimport 'zeppelin-solidity/contracts/crowdsale/Crowdsale.sol';\n\ncontract Presale is Ownable {\n\tusing SafeMath for uint;\n\n\t/**\n\t* Array of purchaser wallet addresses\n\t*/\n\taddress[] public purchasers;\n\n\t/**\n\t* Map of purchasers to amount purchased\n\t*/\n\tmapping(address => uint) public balances;\n\n\t/**\n\t* Total purchased amount (in wei)\n\t*/\n\tuint public totalPurchased;\n\n\t/**\n\t* Maximum presale amount allotted\n\t* in wei\n\t*/\n\tuint public presaleMaximum = 35850 * (10 ** 18);\n\n\t/**\n\t* Minimum purchase amount\n\t* Set to 1.5 ETH (in wei)\n\t*/\n\tuint public minimumPurchase = 15 * (10 ** 17);\n\n\t/**\n\t* The ITO crowdsale contract\n\t*/\n\tCrowdsale public crowdsale;\n\n\t/**\n\t* Bool if presale has ended\n\t*/\n\tbool public ended;\n\n\t/**\n\t* Mapping to track purchasers pushed to crowdsale\n\t*/\n\tmapping(address => bool) public pushed;\n\n\t//Events\n\tevent Purchased(address _purchaser, uint amount, bool existing, uint totalPurchasedAmount);\n\tevent Pushed(address _purchaser, uint amount);\n\tevent Refund(address _purchaser, uint amount);\n\n\t/**\n\t* Constructor\n\t*/\n\tfunction PresaleFunds() public {\n\t\tended = false;\n\t\ttotalPurchased = 0;\n\t}\n\n\t/**\n\t* Function to handle presale purchases\n\t*/\n\tfunction Purchase() public payable {\n\t\trequire(!ended);\n\t\trequire(msg.value >= minimumPurchase);\n\n\t\taddress purchaser = msg.sender;\n\n\t\tbool existing = balances[purchaser] > 0;\n\n\t\tbalances[purchaser] = balances[purchaser].add(msg.value);\n\n\t\ttotalPurchased = totalPurchased.add(msg.value);\n\n\t\tif (existing == false) {\n\t\t\tpurchasers.push(purchaser);\n\t\t}\n\n\t\tif (totalPurchased >= presaleMaximum) {\n\t\t\tended = true;\n\t\t}\n\n\t\tPurchased(purchaser, msg.value, existing, totalPurchased);\n\n\t}\n\n\t/**\n\t* Function to push presale purchaser to ITO Crowdsale\n\t*\n\t* Needs to be public and non-onlyowner to be called internally and\n\t* also externally if necessary.  Multiple required checks to prevent abuse\n\t*\n\t* The presale must be ended to push purchasers\n\t*/\n\tfunction PushPurchaserToCrowdsale(address _purchaser) public {\n\t\trequire(address(crowdsale) != 0x0);\n\t\trequire(ended == true);\n\t\trequire(pushed[_purchaser] != true);\n\t\trequire(balances[_purchaser] > 0);\n\n\t\tuint amount = balances[_purchaser];\n\n\t\t// The final ITO Crowdsale *MUST HAVE* a buyTokens (payable) \n\t\t// function which distributes the correct amount of tokens to\n\t\t// the presale purchasers\n\t\tcrowdsale.buyTokens.value(amount)(_purchaser);\n\n\t\tpushed[_purchaser] = true;\n\t\tPushed(_purchaser, amount);\n\t}\n\n\t/**\n\t* Function to push all purchasers to ITO\n\t*\n\t* If this loop hits a gas limit we will need to push all purhcasers\n\t* manually using PushPurchaserToCrowdsale\n\t*/\n\tfunction PushAllPurchasersToCrowdsale() public onlyOwner {\n\t\trequire(address(crowdsale) != 0x0);\n\t\trequire(ended == true);\n\n\t\tfor(uint i = 0; i < purchasers.length; i++) {\n\t\t\tPushPurchaserToCrowdsale(purchasers[i]);\n\t\t}\n\t}\n\n\t/**\n\t* Set ITO Crowdsale contract\n\t*/\n\tfunction SetCrowdsale(address _crowdsale) public onlyOwner {\n\t\tcrowdsale = Crowdsale(_crowdsale);\n\t}\n\n\t/**\n\t* End presale\n\t*/\n\tfunction EndPresale() public onlyOwner {\n\t\tended = true;\n\t}\n\n\t/**\n\t* Open presale\n\t*/\n\tfunction OpenPresale() public onlyOwner {\n\t\tended = false;\n\t}\n\n\t/**\n\t* Refund a purchaser\n\t*/\n\tfunction RefundPurchaser(address _purchaser) public onlyOwner {\n\t\trequire(balances[_purchaser] > 0);\n\t\trequire(pushed[_purchaser] != true);\n\n\t\tuint amount = balances[_purchaser];\n\t\t_purchaser.transfer(amount);\n\n\t\tbalances[_purchaser] = 0;\n\n\t\tRefund(_purchaser, amount);\n\t}\n\n\t/**\n\t* Function to withdraw funds to owner\n\t*/\n\tfunction withdraw() external onlyOwner {\n\t\towner.transfer(this.balance);\n\t}\n\n\t/**\n\t* Function to update\n\t*/\n\tfunction updateCap(uint newCap) external onlyOwner {\n\t\tpresaleMaximum = newCap * (10 ** 18);\n\t}\n\n\t/**\n\t* Override function\n\t*/\n\tfunction() payable {\n\t\tPurchase();\n\t}\n\n}\n",
  "sourcePath": "/Users/chrisbrown/Code/Clients/wellsite/smart-contracts/Presale/contracts/Presale.sol",
  "compiler": {
    "name": "solc",
    "version": "0.4.19+commit.c4cbbb05.Emscripten.clang"
  },
  "schemaVersion": "2.0.0",
  "updatedAt": "2018-03-30T15:26:36.203Z"
}