{
  "contractName": "Presale",
  "abi": [
    {
      "constant": true,
      "inputs": [
        {
          "name": "",
          "type": "uint256"
        }
      ],
      "name": "purchasers",
      "outputs": [
        {
          "name": "",
          "type": "address"
        }
      ],
      "payable": false,
      "stateMutability": "view",
      "type": "function"
    },
    {
      "constant": true,
      "inputs": [],
      "name": "ended",
      "outputs": [
        {
          "name": "",
          "type": "bool"
        }
      ],
      "payable": false,
      "stateMutability": "view",
      "type": "function"
    },
    {
      "constant": true,
      "inputs": [
        {
          "name": "",
          "type": "address"
        }
      ],
      "name": "balances",
      "outputs": [
        {
          "name": "",
          "type": "uint256"
        }
      ],
      "payable": false,
      "stateMutability": "view",
      "type": "function"
    },
    {
      "constant": true,
      "inputs": [],
      "name": "owner",
      "outputs": [
        {
          "name": "",
          "type": "address"
        }
      ],
      "payable": false,
      "stateMutability": "view",
      "type": "function"
    },
    {
      "constant": true,
      "inputs": [],
      "name": "crowdsale",
      "outputs": [
        {
          "name": "",
          "type": "address"
        }
      ],
      "payable": false,
      "stateMutability": "view",
      "type": "function"
    },
    {
      "constant": true,
      "inputs": [],
      "name": "minimumPurchase",
      "outputs": [
        {
          "name": "",
          "type": "uint256"
        }
      ],
      "payable": false,
      "stateMutability": "view",
      "type": "function"
    },
    {
      "constant": true,
      "inputs": [],
      "name": "presaleMaximum",
      "outputs": [
        {
          "name": "",
          "type": "uint256"
        }
      ],
      "payable": false,
      "stateMutability": "view",
      "type": "function"
    },
    {
      "constant": true,
      "inputs": [
        {
          "name": "",
          "type": "address"
        }
      ],
      "name": "pushed",
      "outputs": [
        {
          "name": "",
          "type": "bool"
        }
      ],
      "payable": false,
      "stateMutability": "view",
      "type": "function"
    },
    {
      "constant": true,
      "inputs": [],
      "name": "totalPurchased",
      "outputs": [
        {
          "name": "",
          "type": "uint256"
        }
      ],
      "payable": false,
      "stateMutability": "view",
      "type": "function"
    },
    {
      "constant": false,
      "inputs": [
        {
          "name": "newOwner",
          "type": "address"
        }
      ],
      "name": "transferOwnership",
      "outputs": [],
      "payable": false,
      "stateMutability": "nonpayable",
      "type": "function"
    },
    {
      "payable": true,
      "stateMutability": "payable",
      "type": "fallback"
    },
    {
      "anonymous": false,
      "inputs": [
        {
          "indexed": false,
          "name": "_purchaser",
          "type": "address"
        },
        {
          "indexed": false,
          "name": "amount",
          "type": "uint256"
        },
        {
          "indexed": false,
          "name": "existing",
          "type": "bool"
        },
        {
          "indexed": false,
          "name": "totalPurchasedAmount",
          "type": "uint256"
        }
      ],
      "name": "Purchased",
      "type": "event"
    },
    {
      "anonymous": false,
      "inputs": [
        {
          "indexed": false,
          "name": "_purchaser",
          "type": "address"
        },
        {
          "indexed": false,
          "name": "amount",
          "type": "uint256"
        }
      ],
      "name": "Pushed",
      "type": "event"
    },
    {
      "anonymous": false,
      "inputs": [
        {
          "indexed": false,
          "name": "_purchaser",
          "type": "address"
        },
        {
          "indexed": false,
          "name": "amount",
          "type": "uint256"
        }
      ],
      "name": "Refund",
      "type": "event"
    },
    {
      "anonymous": false,
      "inputs": [
        {
          "indexed": true,
          "name": "previousOwner",
          "type": "address"
        },
        {
          "indexed": true,
          "name": "newOwner",
          "type": "address"
        }
      ],
      "name": "OwnershipTransferred",
      "type": "event"
    },
    {
      "constant": false,
      "inputs": [],
      "name": "PresaleFunds",
      "outputs": [],
      "payable": false,
      "stateMutability": "nonpayable",
      "type": "function"
    },
    {
      "constant": false,
      "inputs": [],
      "name": "Purchase",
      "outputs": [],
      "payable": true,
      "stateMutability": "payable",
      "type": "function"
    },
    {
      "constant": false,
      "inputs": [
        {
          "name": "_purchaser",
          "type": "address"
        }
      ],
      "name": "PushPurchaserToCrowdsale",
      "outputs": [],
      "payable": false,
      "stateMutability": "nonpayable",
      "type": "function"
    },
    {
      "constant": false,
      "inputs": [],
      "name": "PushAllPurchasersToCrowdsale",
      "outputs": [],
      "payable": false,
      "stateMutability": "nonpayable",
      "type": "function"
    },
    {
      "constant": false,
      "inputs": [
        {
          "name": "_crowdsale",
          "type": "address"
        }
      ],
      "name": "SetCrowdsale",
      "outputs": [],
      "payable": false,
      "stateMutability": "nonpayable",
      "type": "function"
    },
    {
      "constant": false,
      "inputs": [],
      "name": "EndPresale",
      "outputs": [],
      "payable": false,
      "stateMutability": "nonpayable",
      "type": "function"
    },
    {
      "constant": false,
      "inputs": [],
      "name": "OpenPresale",
      "outputs": [],
      "payable": false,
      "stateMutability": "nonpayable",
      "type": "function"
    },
    {
      "constant": false,
      "inputs": [
        {
          "name": "_purchaser",
          "type": "address"
        }
      ],
      "name": "RefundPurchaser",
      "outputs": [],
      "payable": false,
      "stateMutability": "nonpayable",
      "type": "function"
    },
    {
      "constant": false,
      "inputs": [],
      "name": "withdraw",
      "outputs": [],
      "payable": false,
      "stateMutability": "nonpayable",
      "type": "function"
    }
  ],
  "bytecode": "0x606060405269090559c2b786d8a000006004556714d1120d7b160000600555336000806101000a81548173ffffffffffffffffffffffffffffffffffffffff021916908373ffffffffffffffffffffffffffffffffffffffff1602179055506112c28061006d6000396000f300606060405260043610610107576000357c0100000000000000000000000000000000000000000000000000000000900463ffffffff16806312923b651461011157806312fa6feb1461017457806327e235e3146101a15780632adfcd05146101ee5780633ccfd60b1461020357806349c15bd9146102185780638da5cb5b146102225780639c1e03a0146102775780639ff957c7146102cc578063aa2de6c314610305578063b527983c1461032e578063c5f71da514610343578063d1ac79c61461036c578063d5482cd2146103a5578063dc6e290f146103ba578063e2f8a3b1146103f3578063e476d2a614610444578063e632c2f314610459578063f2fde38b14610482575b61010f6104bb565b005b341561011c57600080fd5b6101326004808035906020019091905050610702565b604051808273ffffffffffffffffffffffffffffffffffffffff1673ffffffffffffffffffffffffffffffffffffffff16815260200191505060405180910390f35b341561017f57600080fd5b610187610741565b604051808215151515815260200191505060405180910390f35b34156101ac57600080fd5b6101d8600480803573ffffffffffffffffffffffffffffffffffffffff16906020019091905050610754565b6040518082815260200191505060405180910390f35b34156101f957600080fd5b61020161076c565b005b341561020e57600080fd5b6102166107e4565b005b6102206104bb565b005b341561022d57600080fd5b6102356108b9565b604051808273ffffffffffffffffffffffffffffffffffffffff1673ffffffffffffffffffffffffffffffffffffffff16815260200191505060405180910390f35b341561028257600080fd5b61028a6108de565b604051808273ffffffffffffffffffffffffffffffffffffffff1673ffffffffffffffffffffffffffffffffffffffff16815260200191505060405180910390f35b34156102d757600080fd5b610303600480803573ffffffffffffffffffffffffffffffffffffffff16906020019091905050610904565b005b341561031057600080fd5b6103186109a3565b6040518082815260200191505060405180910390f35b341561033957600080fd5b6103416109a9565b005b341561034e57600080fd5b610356610ad5565b6040518082815260200191505060405180910390f35b341561037757600080fd5b6103a3600480803573ffffffffffffffffffffffffffffffffffffffff16906020019091905050610adb565b005b34156103b057600080fd5b6103b8610dce565b005b34156103c557600080fd5b6103f1600480803573ffffffffffffffffffffffffffffffffffffffff16906020019091905050610e46565b005b34156103fe57600080fd5b61042a600480803573ffffffffffffffffffffffffffffffffffffffff16906020019091905050611087565b604051808215151515815260200191505060405180910390f35b341561044f57600080fd5b6104576110a7565b005b341561046457600080fd5b61046c6110cc565b6040518082815260200191505060405180910390f35b341561048d57600080fd5b6104b9600480803573ffffffffffffffffffffffffffffffffffffffff169060200190919050506110d2565b005b600080600660149054906101000a900460ff161515156104da57600080fd5b60055434101515156104eb57600080fd5b3391506000600260008473ffffffffffffffffffffffffffffffffffffffff1673ffffffffffffffffffffffffffffffffffffffff1681526020019081526020016000205411905061058534600260008573ffffffffffffffffffffffffffffffffffffffff1673ffffffffffffffffffffffffffffffffffffffff1681526020019081526020016000205461122790919063ffffffff16565b600260008473ffffffffffffffffffffffffffffffffffffffff1673ffffffffffffffffffffffffffffffffffffffff168152602001908152602001600020819055506105dd3460035461122790919063ffffffff16565b60038190555060001515811515141561065457600180548060010182816106049190611245565b9160005260206000209001600084909190916101000a81548173ffffffffffffffffffffffffffffffffffffffff021916908373ffffffffffffffffffffffffffffffffffffffff160217905550505b60045460035410151561067d576001600660146101000a81548160ff0219169083151502179055505b7f1a6e500850d738b827512bacdfcd03822e0a6a7b27f693eb70bdcb7b288fb2a6823483600354604051808573ffffffffffffffffffffffffffffffffffffffff1673ffffffffffffffffffffffffffffffffffffffff1681526020018481526020018315151515815260200182815260200194505050505060405180910390a15050565b60018181548110151561071157fe5b90600052602060002090016000915054906101000a900473ffffffffffffffffffffffffffffffffffffffff1681565b600660149054906101000a900460ff1681565b60026020528060005260406000206000915090505481565b6000809054906101000a900473ffffffffffffffffffffffffffffffffffffffff1673ffffffffffffffffffffffffffffffffffffffff163373ffffffffffffffffffffffffffffffffffffffff161415156107c757600080fd5b6001600660146101000a81548160ff021916908315150217905550565b6000809054906101000a900473ffffffffffffffffffffffffffffffffffffffff1673ffffffffffffffffffffffffffffffffffffffff163373ffffffffffffffffffffffffffffffffffffffff1614151561083f57600080fd5b6000809054906101000a900473ffffffffffffffffffffffffffffffffffffffff1673ffffffffffffffffffffffffffffffffffffffff166108fc3073ffffffffffffffffffffffffffffffffffffffff16319081150290604051600060405180830381858888f1935050505015156108b757600080fd5b565b6000809054906101000a900473ffffffffffffffffffffffffffffffffffffffff1681565b600660009054906101000a900473ffffffffffffffffffffffffffffffffffffffff1681565b6000809054906101000a900473ffffffffffffffffffffffffffffffffffffffff1673ffffffffffffffffffffffffffffffffffffffff163373ffffffffffffffffffffffffffffffffffffffff1614151561095f57600080fd5b80600660006101000a81548173ffffffffffffffffffffffffffffffffffffffff021916908373ffffffffffffffffffffffffffffffffffffffff16021790555050565b60055481565b60008060009054906101000a900473ffffffffffffffffffffffffffffffffffffffff1673ffffffffffffffffffffffffffffffffffffffff163373ffffffffffffffffffffffffffffffffffffffff16141515610a0657600080fd5b6000600660009054906101000a900473ffffffffffffffffffffffffffffffffffffffff1673ffffffffffffffffffffffffffffffffffffffff1614151515610a4e57600080fd5b60011515600660149054906101000a900460ff161515141515610a7057600080fd5b600090505b600180549050811015610ad257610ac5600182815481101515610a9457fe5b906000526020600020900160009054906101000a900473ffffffffffffffffffffffffffffffffffffffff16610adb565b8080600101915050610a75565b50565b60045481565b600080600660009054906101000a900473ffffffffffffffffffffffffffffffffffffffff1673ffffffffffffffffffffffffffffffffffffffff1614151515610b2457600080fd5b60011515600660149054906101000a900460ff161515141515610b4657600080fd5b60011515600760008473ffffffffffffffffffffffffffffffffffffffff1673ffffffffffffffffffffffffffffffffffffffff16815260200190815260200160002060009054906101000a900460ff16151514151515610ba657600080fd5b6000600260008473ffffffffffffffffffffffffffffffffffffffff1673ffffffffffffffffffffffffffffffffffffffff16815260200190815260200160002054111515610bf457600080fd5b600260008373ffffffffffffffffffffffffffffffffffffffff1673ffffffffffffffffffffffffffffffffffffffff168152602001908152602001600020549050600660009054906101000a900473ffffffffffffffffffffffffffffffffffffffff1673ffffffffffffffffffffffffffffffffffffffff1663ec8ac4d882846040518363ffffffff167c0100000000000000000000000000000000000000000000000000000000028152600401808273ffffffffffffffffffffffffffffffffffffffff1673ffffffffffffffffffffffffffffffffffffffff1681526020019150506000604051808303818588803b1515610cf257600080fd5b6125ee5a03f11515610d0357600080fd5b505050506001600760008473ffffffffffffffffffffffffffffffffffffffff1673ffffffffffffffffffffffffffffffffffffffff16815260200190815260200160002060006101000a81548160ff0219169083151502179055507f14ca0b41d19c82140067d601d51802e1c2833562781fcf742c61311b6d06df448282604051808373ffffffffffffffffffffffffffffffffffffffff1673ffffffffffffffffffffffffffffffffffffffff1681526020018281526020019250505060405180910390a15050565b6000809054906101000a900473ffffffffffffffffffffffffffffffffffffffff1673ffffffffffffffffffffffffffffffffffffffff163373ffffffffffffffffffffffffffffffffffffffff16141515610e2957600080fd5b6000600660146101000a81548160ff021916908315150217905550565b60008060009054906101000a900473ffffffffffffffffffffffffffffffffffffffff1673ffffffffffffffffffffffffffffffffffffffff163373ffffffffffffffffffffffffffffffffffffffff16141515610ea357600080fd5b6000600260008473ffffffffffffffffffffffffffffffffffffffff1673ffffffffffffffffffffffffffffffffffffffff16815260200190815260200160002054111515610ef157600080fd5b60011515600760008473ffffffffffffffffffffffffffffffffffffffff1673ffffffffffffffffffffffffffffffffffffffff16815260200190815260200160002060009054906101000a900460ff16151514151515610f5157600080fd5b600260008373ffffffffffffffffffffffffffffffffffffffff1673ffffffffffffffffffffffffffffffffffffffff1681526020019081526020016000205490508173ffffffffffffffffffffffffffffffffffffffff166108fc829081150290604051600060405180830381858888f193505050501515610fd357600080fd5b6000600260008473ffffffffffffffffffffffffffffffffffffffff1673ffffffffffffffffffffffffffffffffffffffff168152602001908152602001600020819055507fbb28353e4598c3b9199101a66e0989549b659a59a54d2c27fbb183f1932c8e6d8282604051808373ffffffffffffffffffffffffffffffffffffffff1673ffffffffffffffffffffffffffffffffffffffff1681526020018281526020019250505060405180910390a15050565b60076020528060005260406000206000915054906101000a900460ff1681565b6000600660146101000a81548160ff0219169083151502179055506000600381905550565b60035481565b6000809054906101000a900473ffffffffffffffffffffffffffffffffffffffff1673ffffffffffffffffffffffffffffffffffffffff163373ffffffffffffffffffffffffffffffffffffffff1614151561112d57600080fd5b600073ffffffffffffffffffffffffffffffffffffffff168173ffffffffffffffffffffffffffffffffffffffff161415151561116957600080fd5b8073ffffffffffffffffffffffffffffffffffffffff166000809054906101000a900473ffffffffffffffffffffffffffffffffffffffff1673ffffffffffffffffffffffffffffffffffffffff167f8be0079c531659141344cd1fd0a4f28419497f9722a3daafe3b4186f6b6457e060405160405180910390a3806000806101000a81548173ffffffffffffffffffffffffffffffffffffffff021916908373ffffffffffffffffffffffffffffffffffffffff16021790555050565b600080828401905083811015151561123b57fe5b8091505092915050565b81548183558181151161126c5781836000526020600020918201910161126b9190611271565b5b505050565b61129391905b8082111561128f576000816000905550600101611277565b5090565b905600a165627a7a723058200571707315777ecee4269e007f8d6b2e68941aa455ce7d973c4228207c1f6a6b0029",
  "source": "pragma solidity ^0.4.19;\n\nimport 'zeppelin-solidity/contracts/ownership/Ownable.sol';\nimport 'zeppelin-solidity/contracts/math/SafeMath.sol';\nimport 'zeppelin-solidity/contracts/crowdsale/Crowdsale.sol';\n\ncontract Presale is Ownable {\n\tusing SafeMath for uint;\n\n\t/**\n\t* Array of purchaser wallet addresses\n\t*/\n\taddress[] public purchasers;\n\n\t/**\n\t* Map of purchasers to amount purchased\n\t*/\n\tmapping(address => uint) public balances;\n\n\t/**\n\t* Total purchased amount (in wei)\n\t*/\n\tuint public totalPurchased;\n\n\t/**\n\t* Maximum presale amount allotted\n\t* Set to 17000 ETH (in wei)\n\t*/\n\tuint public presaleMaximum = 42600 * (10 ** 18);\n\n\t/**\n\t* Minimum purchase amount\n\t* Set to 1.5 ETH (in wei)\n\t*/\n\tuint public minimumPurchase = 15 * (10 ** 17);\n\n\t/**\n\t* The ITO crowdsale contract\n\t*/\n\tCrowdsale public crowdsale;\n\n\t/**\n\t* Bool if presale has ended\n\t*/\n\tbool public ended;\n\n\t/**\n\t* Mapping to track purchasers pushed to crowdsale\n\t*/\n\tmapping(address => bool) public pushed;\n\n\t//Events\n\tevent Purchased(address _purchaser, uint amount, bool existing, uint totalPurchasedAmount);\n\tevent Pushed(address _purchaser, uint amount);\n\tevent Refund(address _purchaser, uint amount);\n\n\t/**\n\t* Constructor\n\t*/\n\tfunction PresaleFunds() public {\n\t\tended = false;\n\t\ttotalPurchased = 0;\n\t}\n\n\t/**\n\t* Function to handle presale purchases\n\t*/\n\tfunction Purchase() public payable {\n\t\trequire(!ended);\n\t\trequire(msg.value >= minimumPurchase);\n\n\t\taddress purchaser = msg.sender;\n\n\t\tbool existing = balances[purchaser] > 0;\n\n\t\tbalances[purchaser] = balances[purchaser].add(msg.value);\n\n\t\ttotalPurchased = totalPurchased.add(msg.value);\n\n\t\tif (existing == false) {\n\t\t\tpurchasers.push(purchaser);\n\t\t}\n\n\t\tif (totalPurchased >= presaleMaximum) {\n\t\t\tended = true;\n\t\t}\n\n\t\tPurchased(purchaser, msg.value, existing, totalPurchased);\n\n\t}\n\n\t/**\n\t* Function to push presale purchaser to ITO Crowdsale\n\t*\n\t* Needs to be public and non-onlyowner to be called internally and\n\t* also externally if necessary.  Multiple required checks to prevent abuse\n\t*\n\t* The presale must be ended to push purchasers\n\t*/\n\tfunction PushPurchaserToCrowdsale(address _purchaser) public {\n\t\trequire(address(crowdsale) != 0x0);\n\t\trequire(ended == true);\n\t\trequire(pushed[_purchaser] != true);\n\t\trequire(balances[_purchaser] > 0);\n\n\t\tuint amount = balances[_purchaser];\n\n\t\t// The final ITO Crowdsale *MUST HAVE* a buyTokens (payable) \n\t\t// function which distributes the correct amount of tokens to\n\t\t// the presale purchasers\n\t\tcrowdsale.buyTokens.value(amount)(_purchaser);\n\n\t\tpushed[_purchaser] = true;\n\t\tPushed(_purchaser, amount);\n\t}\n\n\t/**\n\t* Function to push all purchasers to ITO\n\t*\n\t* If this loop hits a gas limit we will need to push all purhcasers\n\t* manually using PushPurchaserToCrowdsale\n\t*/\n\tfunction PushAllPurchasersToCrowdsale() public onlyOwner {\n\t\trequire(address(crowdsale) != 0x0);\n\t\trequire(ended == true);\n\n\t\tfor(uint i = 0; i < purchasers.length; i++) {\n\t\t\tPushPurchaserToCrowdsale(purchasers[i]);\n\t\t}\n\t}\n\n\t/**\n\t* Set ITO Crowdsale contract\n\t*/\n\tfunction SetCrowdsale(address _crowdsale) public onlyOwner {\n\t\tcrowdsale = Crowdsale(_crowdsale);\n\t}\n\n\t/**\n\t* End presale\n\t*/\n\tfunction EndPresale() public onlyOwner {\n\t\tended = true;\n\t}\n\n\t/**\n\t* Open presale\n\t*/\n\tfunction OpenPresale() public onlyOwner {\n\t\tended = false;\n\t}\n\n\t/**\n\t* Refund a purchaser\n\t*/\n\tfunction RefundPurchaser(address _purchaser) public onlyOwner {\n\t\trequire(balances[_purchaser] > 0);\n\t\trequire(pushed[_purchaser] != true);\n\n\t\tuint amount = balances[_purchaser];\n\t\t_purchaser.transfer(amount);\n\n\t\tbalances[_purchaser] = 0;\n\n\t\tRefund(_purchaser, amount);\n\t}\n\n\t/**\n\t* Function to withdraw funds to owner\n\t*/\n\tfunction withdraw() external onlyOwner {\n\t\towner.transfer(this.balance);\n\t}\n\n\t/**\n\t* Override function\n\t*/\n\tfunction() payable {\n\t\tPurchase();\n\t}\n\n}\n",
  "sourcePath": "/Users/chrisbrown/Code/Clients/wellsite/smart-contracts/Presale/contracts/Presale.sol",
  "compiler": {
    "name": "solc",
    "version": "0.4.19+commit.c4cbbb05.Emscripten.clang"
  },
  "schemaVersion": "2.0.0",
  "updatedAt": "2018-03-27T19:37:54.679Z"
}